{"abi":[{"type":"constructor","inputs":[{"name":"_data","type":"bytes32[3]","internalType":"bytes32[3]"}],"stateMutability":"nonpayable"},{"type":"function","name":"ID","inputs":[],"outputs":[{"name":"","type":"uint256","internalType":"uint256"}],"stateMutability":"view"},{"type":"function","name":"locked","inputs":[],"outputs":[{"name":"","type":"bool","internalType":"bool"}],"stateMutability":"view"},{"type":"function","name":"unlock","inputs":[{"name":"_key","type":"bytes16","internalType":"bytes16"}],"outputs":[],"stateMutability":"nonpayable"}],"bytecode":{"object":"0x60806040525f805460ff1916600190811790915542908190556002805461ffff909216620100000263ffffffff199092169190911761ff0a179055348015610045575f80fd5b50604051610266380380610266833981016040819052610064916100c9565b61007060038281610077565b505061014e565b82600381019282156100a5579160200282015b828111156100a557825182559160200191906001019061008a565b506100b19291506100b5565b5090565b5b808211156100b1575f81556001016100b6565b5f606082840312156100d9575f80fd5b82601f8301126100e7575f80fd5b604051606081016001600160401b038111828210171561011557634e487b7160e01b5f52604160045260245ffd5b604052806060840185811115610129575f80fd5b845b8181101561014357805183526020928301920161012b565b509195945050505050565b61010b8061015b5f395ff3fe6080604052348015600e575f80fd5b5060043610603a575f3560e01c8063b3cea21714603e578063cf309012146059578063e1afb08c146073575b5f80fd5b604660015481565b6040519081526020015b60405180910390f35b5f5460649060ff1681565b60405190151581526020016050565b6082607e36600460a9565b6084565b005b6005546001600160801b0319828116911614609d575f80fd5b505f805460ff19169055565b5f6020828403121560b8575f80fd5b81356001600160801b03198116811460ce575f80fd5b939250505056fea2646970667358221220893663045d9a2087cc4fc6fecffe52ad14b18b1c34979b0a950e1a64435c2a0064736f6c63430008190033","linkReferences":{}},"methodIdentifiers":{"ID()":"b3cea217","locked()":"cf309012","unlock(bytes16)":"e1afb08c"},"id":20}